:020000040800F2
:1000000098070020C5000008C5170008E314000881
:1000100000000000000000000000000000000000E0
:10002000000000000000000000000000C9170008E8
:100030000000000000000000C7170008CB170008F0
:10004000D700000800000000D7000008D700000813
:10005000D7000008D7000008D7000008D700000824
:1000600000000000D7000008D7000008D7000008F3
:10007000D7000008D7000008D700000800000000E3
:10008000D70000080000000000000000D7000008B2
:1000900000000000D700000839180008D700000849
:1000A00000000000D700000800000000D700000892
:1000B0000348854600F08EF800480047851B00087D
:1000C000980700200448804704480047FEE7FEE701
:1000D000FEE7FEE7FEE7FEE735180008B10000087E
:1000E00030B50B46014600202022012409E00D46D0
:1000F000D5409D4205D31D469540491B2546954058
:1001000040191546521E002DF1DC30BDF0B51FB46C
:100110000646002082B005464024019100901BE075
:10012000019922460F46304600F020F8049A059BBC
:10013000801A994110D310461946224600F039F82A
:10014000361A8F410197224601200021009F00F0BE
:1001500030F838184D4100902046641E0028DFDC3E
:10016000019B00982946324607B0F0BD10B5202A01
:1001700004DB0846203AD040002110BD0B46D34096
:10018000D0402024A21A91400843194610BDD2B293
:1001900001E00270401C491EFBD270470022F6E7C6
:1001A00010B513460A4604461946FFF7F0FF2046ED
:1001B00010BD10B5202A04DB0146203A91400020F2
:1001C00010BD914020239C1A0346E3401943904000
:1001D00010BD0000064C0125064E05E0E36807CC83
:1001E0002B430C3C98471034B442F7D3FFF764FF1D
:1001F000103900083039000806490020C861064857
:100200000169042211430161016940221143016126
:10021000704700007803002000200240064A0021B9
:10022000D16106490A6902231A430A6148610869D3
:1002300040221043086170477803002000200240EC
:1002400010B5054B0022DA61044A136901242343E7
:100250001361018010BD00007803002000200240DF
:1002600010B50B4A0020D168CB060A4904D5C869ED
:1002700002231843C8611020D3685B0705D5CB69FA
:1002800001242343CB6104210843D06010BD00004A
:10029000002002407803002070B5054600F0AEF95A
:1002A0000646104C0AE0681C08D0002D04D000F06F
:1002B000A5F9801BA84201D9032070BDE068C007E2
:1002C000F1D1E068800601D52020E060E068C0063A
:1002D00002D4E068400703D5FFF7C2FF012070BDDC
:1002E000002070BD0020024070B5044600F086F981
:1002F0000546601C02D004480078241800F07EF9FE
:10030000401BA042FAD370BD58000020F8B5054646
:1003100023480F46017E012601290BD001210176D9
:100320002868204C012807D02046FFF7B5FF002899
:1003300013D030E00220F8BD2046FFF7ADFF0028C3
:1003400029D1FFF759FF2046FFF7A6FF06461648BA
:1003500001690422914301611DE00020C04338601F
:100360006C6812E02046FFF759FF0E48FFF794FF34
:1003700006460D48026902218A430261002E01D01F
:100380003C6008E0012080022418A86881026868A7
:100390000818A042E6D80248002101763046F8BD90
:1003A0007803002050C30000002002400348016988
:1003B00080221143016100207047000000200240AC
:1003C000F0B51FB407461A480024017E15461E46A4
:1003D000012907D0012101761648FFF75DFF0028AB
:1003E00003D020E0022005B0F0BD012F02D0022F83
:1003F00000D00427220128463146FFF7B7FE81B21C
:10040000019862001018FFF71BFF0A48FFF744FF2E
:1004100009490A69520852000A61002803D1641C84
:10042000E4B2BC42E6D3024900220A76DBE70000D0
:100430007803002050C3000000200240064900203D
:100440000A69120607D5054A4A60054A4A600969E1
:10045000090600D5012070470020024023016745AE
:10046000AB89EFCDFCB500230124A1E027462A4645
:100470009F403A4073D04D68012D05D0022D03D026
:10048000112D01D0122D16D185680326AC465D00D2
:10049000AE46AE406546B543AC46CE687546AE4006
:1004A00065462E43866046680D79BE43ED06ED0F26
:1004B0009D4035434560C6685F000325BD40AE469C
:1004C000AE4335468E68BE402E43C6604E68022E4F
:1004D00001D0122E14D1DE08B60036180196366A05
:1004E0005D07B446EE0E0F25B54000966646AE4356
:1004F000B4460D69009EB54066462E43019D2E62AE
:1005000006687546AE430D79AD07AD0FBD40354366
:1005100005604D68ED004AD5284DAE692643AE61B1
:10052000AD699E08ED07ED0F0095254DB6007519D4
:10053000AC46AD689E07360F0F27B740BD4309276D
:10054000FF06B84201D1002710E01E4FB84201D18A
:1005500001270BE01C4FB84202D1022706E026E03B
:100560001A4FB84201D1032700E00527B7402F43B7
:100570006546AF60164E35684F689543FF0300D55A
:100580001543356075684F689543BF0300D5154323
:100590007560B5684F689543FF0200D51543B56097
:1005A000F5684F689543BF0200D51543F5605B1CA5
:1005B0000A681546DA4000D058E7FCBD001002403A
:1005C000000001400004004800080048000C0048FA
:1005D000000401400069084000D0012070474269D2
:1005E00013460B401B0491430B4383617047002A61
:1005F00001D08161704781627047000001488068C6
:10060000704700005800002070B502464032537811
:10061000202B1CD11378012B19D001231370242413
:100620005470046825689D432560046825681E038E
:10063000B5432560046825680D432560006801689E
:1006400019430160202050700020107070BD0220FE
:1006500070BD70B5024640325378202B1BD1137801
:10066000012B18D0012414702423537003681D68D3
:10067000A5431D6005682B680F263602B3430902A7
:1006800019432960006801682143016020205070EF
:100690000020107070BD022070BD000070B5040015
:1006A00006D02546403568780026002802D005E0AF
:1006B000012070BD2E70204600F0F0F824206870F4
:1006C000206801684908490001600F216068090637
:1006D00088432168086121688A680120C003824339
:1006E0008A60E1680129A16808D0212292021143A1
:1006F00022689160E168022902D005E00143F7E732
:1007000001212268C902516021684A680F4B1A43CF
:100710004A602168CA688243CA60616920690843E7
:10072000A169090208432168C860216AE069084399
:100730002168086020680168012211430160666435
:10074000202068702663AE70002070BD008000021B
:10075000FFB5054604464035687883B0202872D13D
:100760000C98002814D00D98002811D02878012862
:1007700069D001202870FFF741FF07460122009051
:100780001923D103204600F03BFF002871D103E07C
:100790000120400260646CE0212068704020A87055
:1007A000002666640C9860620D98608566630E98FA
:1007B0000090019704A90EC9204600F0DDFE002834
:1007C00001D02E7055E0608DFF2805D9FF222285CB
:1007D00001231B06009606E0608D20850096208D83
:1007E0000123C2B25B062046049900F0F5FE3A46AA
:1007F00020460E9900F051FF00283AD1606A216826
:1008000000788862606A401C6062608D401E60856E
:10081000208D401E80B22085618D00291FD00028C8
:100820001DD100970022802120460E9B00F0E8FE9B
:1008300000281ED1608DFF2806D9FF2222850123C2
:100840001B06009607E024E0608D20850096208D31
:100850000123C2B25B062046049900F0BDFE608D04
:100860000028C4D13A4620460E9900F0F0FE002838
:1008700002D0012007B0F0BD20682021C1612068AE
:100880004268054B1A4042606970AE702E700020BD
:10089000F0E70220EEE7000000E800FE10B586B0A9
:1008A000044614216846FFF779FC13492068884202
:1008B00020D1124C616901204004014361616169EA
:1008C0000140032005914002009012200190012078
:1008D0000290032003900420049009206946C0067A
:1008E000FFF7C0FDE169012040050143E161E169D5
:1008F0000140059106B010BD0054004000100240B8
:100900000248816802788918816070475800002089
:1009100010B506480168102211430160002000F064
:1009200007F800F027F8002010BD0000002002406A
:1009300070B504460D4D7D202978C000FFF7D0FB2F
:1009400001460B480068FFF7CBFB00F033FB0028A3
:1009500009D1042C07D200222146401E00F02AF8BB
:1009600000206C6070BD012070BD000058000020A8
:100970006400002008B508488169012211438161A3
:10098000816911400091C26901040A43C261C069D2
:100990000840009008BD000000100240002805DB60
:1009A000C106C90E01208840014908607047000057
:1009B00000E100E010B500F0BDFF10BDF8B5054640
:1009C0000068354CC00352D5E0690026C00007D44A
:1009D000E16920040143E161E169014001260091E0
:1009E0002E480168C90510D40168821511430160C1
:1009F000FFF704FE074604E0FFF700FEC01B642873
:100A000024D826480068C005F6D5206A03273F028F
:100A1000384020D06968394081421CD0206A226A5F
:100A2000B843012109040A432262226A8A432262EE
:100A30002062C0070FD0FFF7E1FD009008E0FFF74C
:100A4000DDFD0099411A1648814201D90320F8BD05
:100A5000206A8007F3D5206A6968B843084320629A
:100A6000002E04D0E169012000078143E16128786C
:100A7000C00705D0206BA968800880000843206368
:100A80002878800605D5206B10218843E968084343
:100A900020630020F8BD00000010024000700040FC
:100AA00088130000F8B50F46060059D03A4D286863
:100AB000C007C00FB84209D2286840084000384338
:100AC00028602868C007C00FB84249D13068334C4D
:100AD00081070CD5400704D5606807210902084347
:100AE00060606068F0218843B168084360603078D6
:100AF000C00726D0706801280ED0216802280ED0C9
:100B0000890700292CDA616889088900014361603E
:100B1000FFF774FD00900DE021688903F1E789017A
:100B2000EFE7FFF76BFD0099411A1D48814201D99B
:100B30000320F8BD60680C21084071688900884274
:100B4000EFD12868C007C00FB8420BD92868400809
:100B50004000384328602868C007C00FB84201D061
:100B60000120F8BD3078400706D5606807210902EA
:100B70008843F1680843606000F018F86168094A2A
:100B80000906090F515CC840074908600020FFF7BB
:100B9000CFFE0020F8BD00000020024000100240FF
:100BA00088130000003900086400002010B514A369
:100BB0000FCB88B06C460FC415A30FCB0FC4184AD7
:100BC00051680C200B4603401648042B16D0082B06
:100BD00014D18B021B0F6C46E45CD26A04AB120783
:100BE000120F9A5CC90305D500231946FFF78EFA48
:100BF000214601E020460C4900F076FE08B010BD09
:100C000002030405060708090A0B0C0D0E0F10104D
:100C10000102030405060708090A0B0C0D0E0F104C
:100C20000010024000127A0000093D00FEB50400E9
:100C300070D02078DC4DC0074AD068680007800F6C
:100C4000012807D068680007800F022809D168686A
:100C5000C00306D5286880033AD560680028E7D02D
:100C600036E06168012914D001208004002901D0F8
:100C7000052914D02A68012109048A432A602968B9
:100C8000814329606068002816D0FFF7B7FC06464C
:100C90000EE028680121090408432860F2E729686A
:100CA00001432960F5E7FFF7A9FC801B64286ED893
:100CB00028688003F7D50BE0FFF7A0FC064604E0A8
:100CC000FFF79CFC801B6428F1D828688003F7D4C8
:100CD00020780126800700283CDA68680007800F2A
:100CE00007D068680007800F022809D16868C00330
:100CF00006D42868800716D5E06801280AD112E0DA
:100D0000E0680028286816D030432860FFF776FC9A
:100D1000074605E043E1FFF771FCC01B0228C6D877
:100D200028688007F7D52868F82188432169C90019
:100D3000084328600EE0400840002860FFF75EFC92
:100D4000074604E0FFF75AFCC01B0228AFD828680A
:100D50008007F7D42078000722D5E0690028686A68
:100D60000ED030436862FFF749FC074604E0FFF706
:100D700045FCC01B02289AD8686A8007F7D50FE0A7
:100D8000400840006862FFF739FC074605E09DE037
:100D9000FFF734FCC01B022889D8686A8007F7D4A3
:100DA000207804274007002860DA00200190E869D5
:100DB000C00008D4E969B8060143E961E969014066
:100DC00001200091019079480168C90511D401689A
:100DD000821511430160FFF711FC009005E0FFF759
:100DE0000DFC0099401A642870D870480068C0054E
:100DF000F5D5A06801280AD0002801D0052810D018
:100E0000286A400840002862286AB84301E0286A3E
:100E100030432862A068002812D0FFF7EFFB009053
:100E20000AE0286A38432862F1E7FFF7E7FB0099F8
:100E3000411A5F48814249D8286A8007F5D50DE0FC
:100E4000FFF7DCFB009006E0FFF7D8FB0099411AA2
:100E5000574881423AD8286A8007F5D4019800287B
:100E600004D0E969012000078143E9612078C006C8
:100E700035D5606901280CD0401D686B23D03843FC
:100E80006863686B400840006863FFF7B7FB06467D
:100E900022E0686B38436863686B30436863FFF730
:100EA000ADFB064604E0FFF7A9FB801B02285BD8D8
:100EB000686B8007F7D5686BF8218843A169C90082
:100EC000084368630BE0B8436863F4E74CE0FFF75E
:100ED00095FB801B022847D8686B8007F7D4206AEF
:100EE00000285ED069680907890F022942D00126CF
:100EF00036060228286805D0B0432860FFF77EFB3D
:100F0000044633E0B0432860FFF778FB074604E06F
:100F1000FFF774FBC01B022826D828688001F7D48D
:100F2000E86AE16A000900010843E862616AA06AB0
:100F3000084369683D2212049143084368602868A9
:100F400030432860FFF75AFB044604E0FFF756FBE6
:100F5000001B022808D828688001F7D521E0FFF798
:100F60004DFB001B022801D90320FEBD286880012B
:100F7000F5D416E00128F8D06868E96A0122120465
:100F8000636A02409A420AD10907E26A090F914254
:100F900005D10F2189040840A16A884201D00120AF
:100FA000FEBD0020FEBD00000010024000700040A9
:100FB00088130000094910B5401E884201D901205C
:100FC00010BD074C60610321081F00F0B3FC002036
:100FD000A06107202061002010BD0000FFFFFF007E
:100FE00000E000E07047704770B5040005D025466A
:100FF0002035687F002802D006E0012070BD002067
:101000002877204600F00AF802206877211D206822
:1010100000F01AFC01206877002070BD08B5006858
:101020000A49884210D10A488269012189040A4389
:101030008261806900220840009011461620FFF767
:10104000B9FC1620FFF7AAFC08BD000000480140CB
:10105000001002400268D36801210B43D36000688E
:1010600082685207520F062A02D002680A430260C1
:1010700000207047704770B504460068016900257C
:10108000C9438907002915DBC168C943890711D401
:10109000E91E0161012020772068806980072046D1
:1010A00002D0FFF7E7FF04E000F096F8204600F0DA
:1010B00094F8257720680169C943490717D4C168A6
:1010C000C943490713D40421C94301610220207791
:1010D000206880698005800F204602D0FFF7CAFF94
:1010E00004E000F079F8204600F077F825772068D2
:1010F0000169C943090716D4C168C943090712D455
:101100000821C9430161042020772068C069800755
:10111000204602D0FFF7AEFF04E000F05DF8204665
:1011200000F05BF8257720680169C943C90617D428
:10113000C168C943C90613D41021C94301610820FD
:1011400020772068C0698005800F204602D0FFF715
:1011500091FF04E000F040F8204600F03EF82577CB
:1011600020680169C943C90708D1C168C943C907D3
:1011700004D1891E0161204600F030F82068016921
:10118000C943090609D4C168C943090605D48021A9
:10119000C94301612046FFF725FF20680169C94363
:1011A000490609D4C168C943490605D44021C94349
:1011B0000161204600F094F920680169C94389065D
:1011C00009D4C168C943890605D42021C9430161F6
:1011D0002046FFF708FF70BD70477047F0B5BB4F62
:1011E000FF20FB7839465A072D30B94C01260025DF
:1011F000097985B0002A2FDAFA6B521EFA63012AA8
:101200002ADCFE633A6B521C3A63322A24DD002941
:1012100001D0B04AFA60012906D002290AD0032978
:101220000ED0042917D111E02268521E226012D577
:10123000206010E06268521E62600CD560600AE0B7
:10124000A268521EA26006D5A06004E0E268521EA9
:10125000E26000D5E0603D639A0733D5BA6B521E59
:10126000BA63012A2EDCBE637A6B521C7A63322A7F
:1012700028DD002901D0974AFA60012906D0022909
:101280000BD0032910D004291BD114E02168491C7C
:101290002160814215DD256013E06168491C6160B1
:1012A00081420EDD65600CE0A168491CA1608142AD
:1012B00007DDA56005E0E168491CE160814200DDD1
:1012C000E5607D637879401C78713878030000F020
:1012D00023FB03031B4E7E00002202217E48FFF702
:1012E00086F9092000228021C006FFF780F9092035
:1012F00000224021C006FFF77AF9092000222021B0
:10130000C006FFF774F962E03869002802D0401E79
:10131000386112E0786A002809D0092001222021D2
:10132000C006FFF764F9786A401E786205E009207C
:1013300000222021C006FFF75AF9F86A002809D0D8
:10134000092001228021C006FFF751F9F86A401EEA
:10135000F86205E0092000228021C006FFF747F966
:10136000F96A786A084332D13D707E702FE078695F
:10137000002802D0401E786112D1386A002809D0B6
:10138000092001224021C006FFF731F9386A401ECA
:10139000386205E0092000224021C006FFF727F946
:1013A000B86A002808D0012202214B48FFF71FF934
:1013B000B86A401EB86204E0002202214648FFF7E6
:1013C00016F9B96A386A084301D13D70BE703879A0
:1013D000002823D0F868002801DD401EF8600028AE
:1013E0001CD1FFF72BF83D48019003A90296009508
:1013F0006846FEF78BFFFEF7D9FF0021206800F05A
:1014000093FB0121606800F08FFB0221A06800F0CF
:101410008BFB0321E06800F087FB3D71B869002871
:1014200001DD401EB861F878C0074DD0F8697D2114
:10143000401C0901F861884244DD3D70FD627D6217
:10144000BD623D62BE707E70BD7109200022022126
:10145000C006FD61FFF7CBF8092000220121C0067C
:10146000FFF7C5F83879012805D0022803D00328F2
:1014700001D004281BD1FEF7E1FF1848019003A911
:10148000029600956846FEF741FFFEF78FFF0021A8
:10149000206800F049FB0121606800F045FB022153
:1014A000A06800F041FB0321E06800F03DFB3879C3
:1014B000401C0006000E387104D00649F96004286B
:1014C00000D93D7105B0F0BDFD61FBE718000020BB
:1014D00064030020204E000000040048003C000887
:1014E0007047FEE701688A69D243920701D400225F
:1014F0008A6200688169C943C90703D081690122F2
:101500001143816170470000F7B5044600680E463C
:101510008069C043C0062BD420272546403520686B
:101520008069C043800612D5701CF8D0FFF766F8BA
:101530000299401AB04201D8002EF0D1606C3843B5
:1015400060646F700020A87028700120FEBD2168C3
:101550001020C8612068C7612046FFF7C3FF2068DC
:101560004168044A11404160606C04210843E7E788
:101570000020FEBD00E800FEF8B5044616461548FA
:101580001D46DAB2C3020090079F204600F024F8FF
:101590003A462046069900F080F8002818D12846DF
:1015A000F5B2012809D02168300A88623A462046FF
:1015B000069900F072F800280AD120688562009729
:1015C000002280212046069B00F01AF8002800D057
:1015D0000120F8BD00200080F0B50668059C756804
:1015E000064F600D384385438805800D110408437C
:1015F0001843204305437560F0BD0000FF63FF03FF
:10160000F8B51D4617460E46044609E0681C07D08B
:10161000FEF7F4FF0699401AA8420BD8002D09D016
:1016200020688169304688430FD00020B842EDD051
:101630000020F8BD616C202001436164403460707B
:101640000020A07020700120F8BD0120EEE770B5E9
:1016500016460D4604460FE0324629462046FFF75F
:1016600053FF002801D0012070BDFEF7C7FF801B8B
:10167000A84208D8002D06D020688069C0438006A3
:10168000EAD4002070BD616C2020014361644034C5
:1016900060700020A0702070E5E770B516460D461A
:1016A000044611E0324629462046FFF72DFF002868
:1016B00001D0012070BD681C06D0FEF79FFF801B83
:1016C000A84208D8002D06D020688069C043800752
:1016D000E8D4002070BD616C202001436164403477
:1016E00060700020A0702070E3E70000F0B587B0C4
:1016F00014216846FEF752FD204842690121890500
:101700000A43426142690A400592426949110A430B
:10171000426142690A400592426949000A434261B6
:10172000406909260840F60605900022E32130466C
:10173000FEF75DFF124F002202213846FEF757FFE9
:10174000E32000240125009002946946019503944A
:101750003046FEF787FE1C206A4631C26946304695
:10176000FEF780FE02200090032003900195029472
:1017700069463846FEF776FE07B0F0BD001002401D
:101780000004004810B50D480B4901600C49416048
:10179000002181600161416181610122C161C260FA
:1017A0000162FEF77BFF00210448FEF72DFF0021B8
:1017B0000248FEF74EFF10BD0054004068020020B2
:1017C0000B02000070477047704710B5FFF798F89C
:1017D00010BD30B595B030216846FEF7DFFC00241F
:1017E0000F940320009001200D9410941294019006
:1017F00003900E94139410200490000309900001AC
:101800000C9402250A90119408950B946846FFF7F2
:101810000DFA07200C900E9401210D950F940CA841
:10182000FFF740F920201090139410A8FFF7C6F896
:1018300015B030BD7047000010B50248FFF71BFC23
:1018400010BD0000B402002070B50268174B184E9E
:10185000984201D0B04203D17024A2434C68224385
:10186000144C154D984208D0B04206D0134EB042E9
:1018700003D0A04201D0A84204D103263602B243CD
:10188000CE6832438026B2434E69324302608A6892
:10189000C2620A688262984203D0A04201D0A84284
:1018A00001D1096901630121416170BD002C014032
:1018B0000004004000440140004801400020004076
:1018C0000FB410B504A9074B02AA039800F064F8FE
:1018D000044602A9002000F007F9204610BC08BC0D
:1018E00004B01847E91A0008F8B5040C8BB2264674
:1018F00082B25E430D0C1046370C584336048019F3
:101900000021794116466E43370C3604801979411F
:1019100026466E438919F8BD30B47446641E257896
:10192000641CAB4200D21D46635D5B00E31830BC13
:10193000184700008307FF22DB0E9A408907090E33
:101940009940002808DB830809489B001B18186889
:1019500090430843186070470007000F0838830859
:1019600004489B001B18D86990430843D86170470E
:1019700000E400E000ED00E002E008C8121F08C12A
:10198000002AFAD170477047002001E001C1121F00
:10199000002AFBD170470000FFB58DB0044600253A
:1019A00006E025280AD0109A0F999047641C6D1CF8
:1019B00020780028F5D1284611B0F0BD002701217C
:1019C000484A009700E00743641C23780846203B00
:1019D00098401042F7D120782E2817D104200743D1
:1019E0006078641C2A280CD10E98641C02C80091EF
:1019F0000E900BE000990A22514330394018641CC4
:101A000000902078014630390929F3D92078002840
:101A1000D1D0642808D0692806D075281ED0109A25
:101A20000F9990476D1C5BE00A200E99019001C947
:101A30000E91002802DA40422D2102E0390504D53A
:101A40002B216A461172012103E0F90704D02021FD
:101A5000F7E70BAE0B910DE00021FAE70A200E9993
:101A6000019001C90E91F7E70199FEF739FB30317A
:101A7000761E31700028F7D103A8801B203001901A
:101A8000780701D5009801E0012000900199884273
:101A900001DD401A00E000200027009006E002A8C7
:101AA000109AC05D0F9990476D1C7F1C0B98874260
:101AB000F5DB04E0109A30200F9990476D1C0099D7
:101AC000481E00900029F5DC05E03078109A761C5D
:101AD0000F9990476D1C0199481E01900029F4DC74
:101AE000641C65E7092801000A68531C0B6010702C
:101AF000704700000B49020006D0012A06D0022AD6
:101B000006D0032807D105E0488804E0888802E071
:101B1000C88800E00889FF212D31884200DD084691
:101B200070470000003C000870B5C5170446002946
:101B300010D0012915D002291AD0032909D1FEF7A6
:101B40007DFC0F4922462B460120FEF739FCFEF7AB
:101B50002DFC70BDFEF772FC094922462B46891FF9
:101B6000F2E7FEF76BFC064922462B46091FEBE71E
:101B7000FEF764FC024922462B46891EE4E700007A
:101B8000083C000808B5FEF7C3FEFFF722FEFFF78A
:101B9000ADFDFD48FB49016000260A2186604160D9
:101BA0000661FA494661C16080218161FFF71CFA34
:101BB000FFF7E8FD00F000FBF34D40352F461037EE
:101BC0002868386068687860A868B8600020FFF707
:101BD00091FF2C46703420600120FFF78BFF60607E
:101BE0000220FFF787FFA0600320FFF783FFE0607C
:101BF00000F02CFB0021084600F090FBE448012394
:101C000006C8E4A000F002FC00F08EFBDE48FFF7FF
:101C100021FAE24D687964287ED9A86900287BD131
:101C200028790300FFF778FE0504D6DDFDFCE80007
:101C3000287800286FD1A8790300FFF76DFE05040E
:101C40000F2330496C00D048D5A16030FFF738FE33
:101C5000CD48D7A18830FFF733FE0AE0CA48D8A1A3
:101C60006030FFF72DFEC8480CCC8830D8A1083C66
:101C700012E000220927FF0602213846FEF7B7FCD2
:101C8000002244E0C048D7A16030FFF719FEBE48EB
:101C9000CFA18830E368A268FFF712FEE9E7BA48EF
:101CA000D4A16030FFF70CFEFF21F531686AFEF722
:101CB00017FA0746FF21F531E86AFEF711FA0246E6
:101CC000B1483B46C2A18830FFF7FAFD0122D1E7B7
:101CD000AD48CBA16030FFF7F3FDFF21F531286A55
:101CE000FEF7FEF90746FF21F531A86AFEF7F8F97D
:101CF0000246A5483B46B6A18830FFF7E1FD09271B
:101D0000FF06002202213846FEF771FC0122012164
:101D10003846FEF76CFC00E089E0287801282AD1DB
:101D2000E879401CC0B2E87104280BD90927FF06E6
:101D300002213846FEF753FC002201213846FEF707
:101D400056FCEE719048B2A16030FFF7B9FDFF2755
:101D5000F5373946686AFEF7C3F900902969E86AE1
:101D600040183946FEF7BCF902468748ACA18830D6
:101D7000009BFFF7A5FD287802283DD1E879401C9B
:101D8000C0B2E87104280BD90927FF0601213846A3
:101D9000FEF725FC002202213846FEF728FCEE71F2
:101DA0007948A4A16030FFF78BFDFF27F53739464E
:101DB000286AFEF795F900906969A86A40183946C3
:101DC000FEF78EF90246704895A18830009BFFF718
:101DD00077FD11E06C489BA16030FFF771FD226830
:101DE00005E069489BA16030FFF76AFD62686648BC
:101DF0009CA18830FFF764FD0021084600F08EFAB0
:101E00009D4F614806CF01236030083F00F0FEFA85
:101E10001121002000F082FA5B480123883001E0A4
:101E200022E01AE006CF00F0F1FA00F07DFA00F0AF
:101E3000C3F9554F50373846103839680268914217
:101E400008D179684268914204D1B96882689142A8
:101E500000D1DFE6A968A96126E04B4887A1603080
:101E6000FFF72EFDA268C2E7474888A16030FFF760
:101E700027FDE268BBE700F09FF943483A6840302D
:101E800001688A4202D0AA68AA6139607A6841680A
:101E90008A4202D0AA68AA617960B96880688142E2
:101EA00002D0A968A961B860A8690028E3DC386895
:101EB000002812D0E878FD210840E87078680028F2
:101EC0005AD0E878FB210840E870B868002854D060
:101ED000E87840084000E8709CE6E8780221084372
:101EE000E870FF20F530A86328792B46002812D02F
:101EF0006A49E960012841D0022840D003283FD038
:101F00000428DBD1E068FF21401C2D31E0608842CD
:101F1000D4DDE660D2E71A78002A07D0022A11D071
:101F20001E70012159700321A971E3E7FF22216886
:101F3000F5324A43DA62FF226168F5324A430221F0
:101F40005A62197099780129D4D19E700221997131
:101F50007D21C9005961996A002904D1FF22A16835
:101F6000F53251439962196A0029C3D1FF22E16811
:101F7000F53251432962BDE7AEE010E190E099E00F
:101F8000A1E0000000480140B402002075110000EB
:101F90000000002068656C6C6F00000018000020D5
:101FA0003120656779736567203D2020202000007F
:101FB000302E35206D7020202020202020000000B1
:101FC0006C65656E676564766520202020000000E2
:101FD0004D3A256420563A256420202020202020D8
:101FE0002020000066656C68757A766120202020CC
:101FF000000000006C652073746F702020202000AA
:1020000066656C2073746F70202020200000000033
:102010006C65656E6765642020202020200000002C
:102020004D3A256420563A25642020202020202087
:102030002000000066656C68757A20202020202032
:10204000202000004D6F746F72206C653A202020B4
:10205000202000005661737A6F6E206C653A202054
:102060002020000025642078302E356D702020203F
:102070002020202000000000080000204D6F746F19
:10208000722066656C3A2020000000005661737A69
:102090006F6E2066656C3A2000000000204E000044
:1020A0002068FF21401C2D312060884200DC05E7BC
:1020B000266003E76068FF21401C2D316060884284
:1020C000F5DD6660FAE6A068FF21401C2D31A060B6
:1020D0008842ECDDA660F1E6E87804221043E8705F
:1020E000FF20F530E86328792B46002812D03149CB
:1020F000E96001283BD0022841D0032847D00428BA
:1021000000D0E2E6E068401EE060FAD5FF202D3006
:10211000E060DAE61978002906D001290ED01E7099
:102120009A710121A970E4E701211970FF22A168C9
:10213000F53251439962E168514319625978012996
:10214000D7D15E7099717D21C9001961D96A0029C2
:1021500004D1FF222168F5325143D962596A00291E
:10216000C7D1FF226168F53251436962C1E7206837
:10217000401E2060C5D5FF202D302060A5E6606898
:10218000401E6060BDD5FF202D3060609DE6A068D8
:10219000401EA060B5D5FF202D30A06095E62979BE
:1021A0002846002901D00349C160C17801221143AA
:1021B000E9702FE5204E000070B50925ED060421D9
:1021C0002846FEF707FA064C082120602846FEF74D
:1021D00001FA606010212846FEF7FCF9A06070BD8E
:1021E000F402002070B5802815D2202913D24D07A3
:1021F00001246D0F0A4BAC40C9081E79C901094B77
:102200000818002E02D0002A06D001E0012A03D0CF
:10221000195CA143195470BD195C2143FAE7000011
:10222000100000206800002010B50021064B01229C
:102230005202002805D0FF245C54491C9142F8D377
:1022400010BD0024F8E700006800002010B56420ED
:10225000FEF74AF8AE2000F0C7F8202000F0C4F8DE
:10226000102000F0C1F8B02000F0BEF8C82000F047
:10227000BBF8002000F0B8F8102000F0B5F84020BE
:1022800000F0B2F8812000F0AFF8FF2000F0ACF8C9
:10229000A12000F0A9F8A62000F0A6F8A82000F0E0
:1022A000A3F81F2000F0A0F8A42000F09DF8D32090
:1022B00000F09AF8002000F097F8D52000F094F88C
:1022C000F02000F091F8D92000F08EF8222000F0E4
:1022D0008BF8DA2000F088F8022000F085F8DB2087
:1022E00000F082F8202000F07FF88D2000F07CF8CC
:1022F000142000F079F8AF2000F076F80020FFF706
:1023000093FF00F011F80448002101804180012171
:102310004171084610BD000010000020014A1080E5
:102320005180704710000020FEB5002464250E4F38
:1023300080262046B030C0B200F056F8002000F0F1
:1023400053F8102000F050F8E001C019009001236C
:1023500040227821019602950448FEF7F9F9641CA1
:10236000E4B2082CE5D3FEBD68000020680200201E
:10237000FFB581B068460025077A467A27E00198C4
:1023800003992038704340194000085A00240090F7
:102390001AE00098A040000408D51248049A8178F9
:1023A000007849190019C9B2C0B20AE0049800289F
:1023B00016D000220B488178007849190019C9B25B
:1023C000C0B2FFF70FFF641CA742E2D86D1CAE42FB
:1023D000D5D804480188C9190180019805B0F0BD1D
:1023E0000122E7E71000002001B584B0012164223A
:1023F00004A80B4602920191009000227821024825
:10240000FEF7A6F905B000BD68020020F0B51D4634
:102410000E46174604460AE02B463A463146FFF779
:10242000A7FF2178884201D0C8B2F0BD641C207893
:102430000028F1D1C0B2F0BD000000000000000093
:10244000000000000000000000000000001000106C
:10245000001000100010001000000010000000002C
:1024600000280028002800000000000000000000F4
:102470000000000000240024007C00240048007CB0
:1024800000480048000000000038005400500038A8
:1024900000140054005400380010000000200054C4
:1024A000005800300028005400140008000000000C
:1024B00000100028002800100034004800480034B4
:1024C00000000000001000100010000000000000DC
:1024D00000000000000000000008001000200020A4
:1024E0000020002000200020001000080020001024
:1024F000000800080008000800080008001000207C
:10250000001000380010002800000000000000004B
:10251000000000000000000000100010007C00100F
:10252000001000000000000000000000000000009B
:10253000000000000000001000100010000000006B
:102540000000000000000038000000000000000053
:10255000000000000000000000000000000000106B
:10256000000000000008000800100010001000101B
:102570000020002000000000003800440044005407
:102580000044004400440038000000000010003007
:10259000005000100010001000100010000000009B
:1025A0000038004400440004000800100020007CB3
:1025B000000000000038004400040018000400047B
:1025C000004400380000000000080018002800281F
:1025D0000048007C0008000800000000007C00406B
:1025E00000400078000400040044003800000000AF
:1025F00000380044004000780044004400440038A3
:1026000000000000007C0004000800100010002002
:102610000020002000000000003800440044003882
:10262000004400440044003800000000003800442A
:1026300000440044003C0004004400380000000056
:10264000000000000010000000000000000000106A
:10265000000000000000000000000010000000006A
:10266000000000100010001000000000000C0030FE
:1026700000400030000C00000000000000000000DE
:102680000000007C0000007C000000000000000052
:102690000000000000600018000400180060000046
:1026A0000000000000380044000400080010001082
:1026B000000000100000000000380044004C0054EE
:1026C000005C0040004000380000000000100028BE
:1026D000002800280028007C00440044000000007E
:1026E000007800440044007800440044004400782E
:1026F000000000000038004400400040004000405E
:10270000004400380000000000700048004400440D
:10271000004400440048007000000000007C0040BD
:102720000040007C004000400040007C00000000B1
:10273000007C004000400078004000400040004025
:10274000000000000038004400400040005C0044ED
:102750000044003800000000004400440044007CB5
:102760000044004400440044000000000038001011
:1027700000100010001000100010003800000000D1
:1027800000040004000400040004000400440038B5
:102790000000000000440048005000600050004865
:1027A000004800440000000000400040004000409D
:1027B000004000400040007C000000000044006C2D
:1027C000006C005400440044004400440000000039
:1027D00000440064006400540054004C004C004469
:1027E000000000000038004400440044004400445D
:1027F0000044003800000000007800440044004419
:102800000078004000400040000000000038004414
:102810000044004400440044005400380004000018
:102820000078004400440044007800480048004418
:1028300000000000003800440040003000080004A0
:102840000044003800000000007C00100010001060
:1028500000100010001000100000000000440044B0
:1028600000440044004400440044003800000000DC
:1028700000440044004400280028002800100010F4
:102880000000000000440044005400540054006C58
:102890000028002800000000004400280028001044
:1028A00000100028002800440000000000440044FC
:1028B0000028002800100010001000100000000088
:1028C000007C000400080010001000200040007C84
:1028D0000000000000180010001000100010001090
:1028E0000010001000100018002000200010001040
:1028F0000010001000080008000000000030001068
:102900000010001000100010001000100010003027
:102910000010002800280044000000000000000013
:1029200000000000000000000000000000000000A7
:1029300000000000000000FE002000100000000069
:102940000000000000000000000000000000000087
:1029500000380044003C0044004C003400000000FB
:1029600000400040005800640044004400640058E7
:10297000000000000000000000380044004000405B
:102980000044003800000000000400040034004C43
:1029900000440044004C003400000000000000002F
:1029A00000380044007C0040004400380000000073
:1029B000000C0010007C001000100010001000102F
:1029C00000000000000000000034004C00440044FF
:1029D000004C0034000400780040004000580064BF
:1029E00000440044004400440000000000100000C7
:1029F0000070001000100010001000100000000017
:102A000000100000007000100010001000100010F6
:102A1000001000E0004000400048005000600050FE
:102A2000004800440000000000700010001000107A
:102A30000010001000100010000000000000000056
:102A4000007800540054005400540054000000006A
:102A500000000000005800640044004400440044AA
:102A60000000000000000000003800440044004462
:102A7000004400380000000000000000005800641E
:102A80000044004400640058004000400000000082
:102A90000034004C00440044004C003400040004A6
:102AA000000000000058006400400040004000406A
:102AB0000000000000000000003800440030000862
:102AC00000440038000000000020002000780020B2
:102AD000002000200020001800000000000000007E
:102AE0000044004400440044004C00340000000056
:102AF00000000000004400440028002800280010C6
:102B00000000000000000000005400540054006C5D
:102B100000280028000000000000000000440028F9
:102B20000010001000280044000000000000000019
:102B3000004400440028002800100010001000602D
:102B400000000000007C0008001000200040007C15
:102B500000000000001800100010001000200020ED
:102B600000100010001000180010001000100010DD
:102B700000100010001000100010001000300010B5
:102B800000100010000800080010001000100030B5
:102B90000000000000000074004C00000000000075
:102BA0000000000000000000000000000000000025
:102BB0000000000000000000000000000000000015
:102BC00000000000000000000000000C000C000CE1
:102BD000000C000C000C000C000C000C000C000C95
:102BE0000000000C000C0000000000000000001BB2
:102BF000001B001B001B001B000000000000000069
:102C000000000000000000000000000000000000C4
:102C100000008019801980198019C07FC07F801939
:102C20000033C07FC07F0033003300330033000027
:102C3000000000000000001E003F807580650074E9
:102C4000003C001E00078005806580658075003FA0
:102C5000001E0004000400000000007000D840D8EE
:102C6000C0D880D900730006000C801BC036C06637
:102C7000C046C00680030000000000000000001EE7
:102C8000003F003300330033001E000CC03CC06620
:102C9000806380618063C03E801C000000000000F3
:102CA0000000000C000C000C000C000C00000000E8
:102CB0000000000000000000000000000000000014
:102CC0000000000080000001000300060006000470
:102CD000000C000C000C000C000C000C00040006A2
:102CE0000006000300018000002000100018000C06
:102CF000000C0004000600060006000600060006A0
:102D00000004000C000C0018001000200000000C53
:102D1000002D003F001E00330000000000000000F6
:102D200000000000000000000000000000000000A3
:102D3000000000000000000C000C000C000CC0FFA4
:102D4000C0FF000C000C000C000C00000000000094
:102D50000000000000000000000000000000000073
:102D60000000000000000000000000000000000C57
:102D7000000C000400040008000000000000000037
:102D800000000000000000000000001E001E000007
:102D90000000000000000000000000000000000033
:102DA0000000000000000000000000000000000023
:102DB000000000000000000C000C000000000000FB
:102DC00000000003000300030006000600060006E2
:102DD000000C000C000C000C00180018001800007B
:102DE000000000000000001E003F00338061806191
:102DF0008061806D806D8061806180610033003F03
:102E0000001E00000000000000000006000E001E72
:102E10000036002600060006000600060006000632
:102E20000006000600060000000000000000001E72
:102E3000003F807380618061800100030006000C08
:102E4000001800300060807F807F000000000000DC
:102E50000000001C003E006300630003000E000E33
:102E600000038001800180618073003F001E00002C
:102E70000000000000000006000E000E001E001EF4
:102E80000016003600360066807F807F0006000650
:102E900000060000000000000000007F007F0060CE
:102EA00000600060006E007F8063800180018061AF
:102EB0008073003F001E0000000000000000001EA4
:102EC000003F803380610060006E007F807380610E
:102ED000806180618033003F001E00000000000020
:102EE0000000807F807F8001000300030006000651
:102EF000000C000C000C000800180018001800005E
:102F0000000000000000001E003F806380618061BF
:102F10000021001E003F8061806180618061003F70
:102F2000001E0000000000000000001E003F0073B3
:102F30008061806180618073803F801D800180613D
:102F40000073003F001E00000000000000000000B1
:102F5000000000000000000C000C00000000000059
:102F6000000000000000000C000C00000000000049
:102F7000000000000000000000000000000C000C39
:102F800000000000000000000000000C000C000425
:102F90000004000800000000000000008000800322
:102FA000000E003800600038000E80038000000032
:102FB0000000000000000000000000000000000011
:102FC0000000807F807F00000000807F807F000005
:102FD00000000000000000000000000000000000F1
:102FE0000000000000400070001C00078001000786
:102FF000001C007000400000000000000000000005
:103000000000001F803FC071C060C000C00180038D
:103010000007000E000C000C0000000C000C00006B
:10302000000000000000001E003F803180718063BE
:10303000806F806D806D806F806700600032003E21
:10304000001C0000000000000000000E000E001B2D
:10305000001B001B001B80318031803F803F80318E
:10306000C060C060C0600000000000000000007C84
:10307000007E0063006300630063007E007E0063E7
:10308000806180618063007F007E0000000000009E
:103090000000001E003F8031806100600060006021
:1030A00000600060006080618031003F001E000011
:1030B000000000000000007C007F006380638061EE
:1030C0008061806180618061806100630063007E57
:1030D000007C0000000000000000807F807F006016
:1030E000006000600060007F007F006000600060A2
:1030F0000060807F807F0000000000000000807F73
:10310000807F0060006000600060007F007F0060E2
:1031100000600060006000600060000000000000CF
:103120000000001E003F8031806100600060006090
:1031300080638063806180618031803F001E000079
:10314000000000000000806180618061806180611A
:103150008061807F807F806180618061806180612B
:1031600080610000000000000000003F003F000CF4
:10317000000C000C000C000C000C000C000C000CEF
:10318000000C003F003F0000000000000000800134
:103190008001800180018001800180018001800127
:1031A000806180618073003F001E0000000000000D
:1031B0000000C0608061006300660066006C0078FB
:1031C000007C00660066006380618061C060000072
:1031D000000000000000006000600060006000600F
:1031E0000060006000600060006000600060807F40
:1031F000807F0000000000000000C071C071C07B33
:10320000C07AC06AC06AC06EC064C060C060C0607E
:10321000C060C060C060000000000000000080715D
:103220008071807980798079806D806D806D806516
:103230008067806780678063806300000000000013
:103240000000001E003F003380618061806180616A
:1032500080618061806180610033003F001E00005A
:10326000000000000000007E007F806380618061BC
:1032700080618063007F007E00600060006000600D
:1032800000600000000000000000001E003F00334E
:10329000806180618061806180618061806580671C
:1032A0000033803F401E0000000000000000007E50
:1032B000007F8063806180618063007F007E0066A4
:1032C0000063006380618061C06000000000000056
:1032D0000000000E001F8031803100300038001ED9
:1032E00000078003806180618031003F001E000084
:1032F000000000000000C0FFC0FF000C000C000C2C
:10330000000C000C000C000C000C000C000C000C5D
:10331000000C0000000000000000806180618061FE
:103320008061806180618061806180618061806195
:103330008073003F001E0000000000000000C0601D
:10334000C060C060803180318031001B001B001BD9
:10335000001B000E000E000E000400000000000024
:103360000000C0C0C0C0C0C0C0C0C0C0C0CC804C85
:10337000804C805E8052805280738061806100004A
:10338000000000000000C0C0806080610033003B8E
:10339000001E000C000C001E001F003B80718061AD
:1033A000C0C00000000000000000C0C0806180615B
:1033B00000330033001E001E000C000C000C000C3B
:1033C000000C000C000C0000000000000000803F1A
:1033D000803F8001000300030006000C000C001871
:1033E000001800300060807F807F00000000000037
:1033F000000F000F000C000C000C000C000C000C67
:10340000000C000C000C000C000C000C000C000C5C
:10341000000F000F0000001800180018000C000C2E
:10342000000C000C00060006000600060003000366
:103430000003000000000000001E001E0006000641
:10344000000600060006000600060006000600064C
:103450000006000600060006001E001E0000000C0C
:10346000000C001E001200330033806180610000F8
:10347000000000000000000000000000000000004C
:10348000000000000000000000000000000000003C
:10349000000000000000000000000000000000002C
:1034A000E0FF0000000000380018000C00000000E1
:1034B000000000000000000000000000000000000C
:1034C00000000000000000000000000000000000FC
:1034D0000000001F803F80618001801F803F80616D
:1034E0008063807FC03800000000000000000060A2
:1034F000006000600060006E007F8073806180610A
:10350000806180618073007F006E00000000000019
:1035100000000000000000000000001E003F80735B
:1035200080610060006080618073003F001E0000C9
:103530000000000000008001800180018001801DEA
:10354000803F807380618061806180618073803F93
:10355000801D0000000000000000000000000000CE
:103560000000001E003F00738061807F807F00604C
:103570008071003F001E0000000000000000C00736
:10358000C00F000C000C807F807F000C000C000C32
:10359000000C000C000C000C000C000000000000EF
:1035A0000000000000000000801D803F80738061EB
:1035B0008061806180618073803F801D80018063B5
:1035C000007F003E00000060006000600060006F4F
:1035D000807F8071806180618061806180618061B5
:1035E00080610000000000000000000600060000EE
:1035F0000000003E003E0006000600060006000631
:10360000000600060006000000000000000600069C
:1036100000000000003E003E000600060006000616
:10362000000600060006000600060046007E003C7C
:103630000000006000600060006080610063006660
:10364000006C007C0076006300638061C060000055
:10365000000000000000003E003E000600060006DC
:10366000000600060006000600060006000600062A
:103670000006000000000000000000000000000044
:10368000000080DDC0FFC0CEC0CCC0CCC0CCC0CC60
:10369000C0CCC0CCC0CC0000000000000000000086
:1036A000000000000000006F807F807180618061F9
:1036B00080618061806180618061000000000000A5
:1036C00000000000000000000000001E003F8073AA
:1036D00080618061806180618073003F001E000016
:1036E000000000000000000000000000006E007FED
:1036F000807380618061806180618073007F006E73
:103700000060006000600060000000000000000039
:10371000801D803F807380618061806180618073E3
:10372000803F801D80018001800180010000000039
:103730000000000000000067803F003900300030CA
:103740000030003000300030003000000000000089
:1037500000000000000000000000001E803F8061AB
:103760000060007F803F80018061007F001E0000BC
:103770000000000000000000000800180018007F92
:10378000007F001800180018001800180018801F8B
:10379000800F00000000000000000000000000009A
:1037A00000008061806180618061806180618061F2
:1037B0008063807F803D000000000000000000006A
:1037C000000000000000C060803180318031001BAB
:1037D000001B001B000E000E000600000000000091
:1037E0000000000000000000000080DD80DD80DDC2
:1037F0000055005500550077007700220022000098
:1038000000000000000000000000000000008061D7
:1038100000330033001E000C000C001E0033003388
:1038200080610000000000000000000000000000B7
:1038300080618061803100330033001B001B001B5E
:10384000000E000E000E001C007C00700000000046
:10385000000000000000C07FC07F80010003000660
:10386000000C00180030C07FC07F00000000000086
:103870008003800700060006000600060006000E12
:10388000001C001C000E00060006000600060006D4
:1038900080078003000600060006000600060006FA
:1038A00000060006000600060006000600060006E8
:1038B00000060006000600060038003C000C000C64
:1038C000000C000C000C000E00070007000E000C9E
:1038D000000C000C000C000C003C00380000000044
:1038E000000000000000000000008038807F0047DA
:1038F00000000000000000000000000000000000C8
:10390000000000000000000001020304060708098F
:103910003039000800000020680000007819000815
:103920009839000868000020300700008819000856
:10393000070A0000382400080B120000A42B00081E
:103940000000000000000000000101000000000075
:103950000A000000204E00000000000000000000EF
:103960000000000000000000000000000000000057
:103970000000000000000000000000000000000047
:103980000000000000000000010000000400000032
:083990000000000000127A00A3
:04000005080000B13E
:00000001FF
